S01200005769666952656D6F74652E7372656317
S11300000C9467000C9484000C9484000C94840079
S11300100C9484000C9484000C9484000C9484004C
S11300200C9484000C9484000C9484000C9484003C
S11300300C9484000C9408030C94D9020C9484004E
S11300400C9484000C9484000C9484000C9484001C
S11300500C948400C801C801C801C801C801DE01AC
S1130060DE01E001CA01CA01CA01CA01CC01CC0106
S1130070CC01CC01DE01DE01CE01CE01CE01CE01E8
S1130080CE01DE01DE01D001D001D001D001DE01BC
S1130090DE01DE01D201D201D201D201D201DE01A0
S11300A0DE01D401D601D601D601D601D801D8018A
S11300B0D801D801DE01DE01DA01DA01DA01DA0160
S11300C0DA01DE01DE01DC01DC01DC01DC011124EA
S11300D01FBECFE5D8E0DEBFCDBF10E0A0E6B0E0A4
S11300E0EEEDFFE002C005900D92A23FB107D9F7F3
S11300F021E0A2EFB0E001C01D92AE39B207E1F7F2
S11301000E94D2040C94ED070C940000D098D1986E
S11301103F983E9A3D9A329A319A3098379A089588
S113012097B18F71907E982B97B9369A3699FECFF6
S113013085B108958D9A8FB580688FBD8FB5806223
S11301408FBD8FB58F7E8FBD8FB58F7B8FBD8FB5E4
S113015082608FBD8EB580618EBD8EB588608EBD88
S113016086B597B580E29EE497BD86BD8CB59DB5F6
S11301701DBC1CBC8EB58B7F8EBD8EB582608EBDC2
S11301808EB58E7F8EBD0895882351F0BB9A83B7B8
S1130190806483BF83B7886083BF83B7856083BF70
S11301A0662351F08F9A85B5806485BD85B58860D6
S11301B085BD85B5876085BD0895FC017183608325
S11301C042831382148281E0858316820895FC01A0
S11301D0868181111AC08381A081B181A80FB11DCC
S11301E06C9315824381242F30E0828190E0019743
S11301F02817390711F4138202C04F5F4383938198
S11302008481981302C081E086830895FC0185816E
S113021081111BC09481292F30E0A081B181A20FEC
S1130220B31F8C911682428150E04150510924172A
S1130230350711F4148202C09F5F94832481938153
S1130240291304C091E09583089580E00895FC018A
S113025084818383168281E085830895FC018581EE
S11302600895FC018681089585BB85E88A95F1F798
S11302700000DF9885E88A95F1F70000DF9A089579
S1130280DD9881E00E9434018FE99FE00197F1F746
S113029000C00000DD9A0895813011F482E001C0AD
S11302A080E0DD9884600E943401DD9A08958130F5
S11302B011F080E001C084E0613009F482604130D3
S11302C009F48160DD9888600E943401DD9A089504
S11302D0CF93DF93C62FD42F98E395BBDD98DE9898
S11302E09FEF94BB9AB3906E9ABBEFE1FEE4319713
S11302F0F1F700C00000DF98EFE0F7E23197F1F783
S113030000C00000DF9AEFE0F7E23197F1F700C098
S11303100000DF98E7ECF0E03197F1F700C000004F
S1130320DF9AE7ECF0E03197F1F700C00000DF98C6
S1130330EFEFF5E03197F1F700C00000DF9A0E947B
S11303404C014D2F6C2F81E00E9457010E94400107
S1130350DF91CF910895613011F090E001C090E4F5
S1130360DD98890F80680E943401DD9A0895DD9A32
S1130370803218F00E943401089590E0FC01E05CA2
S1130380F109ED33F105D0F4E65DFF4F0C94E70776
S113039081E417C085E415C089E413C08FE411C05B
S11303A085E50FC081E60DC083E60BC085E609C074
S11303B089E607C08FE605C085E703C085EA01C06A
S11303C083E40E943401089540E061E081E00E94EA
S11303D068011092F2001092F30008950E94400107
S11303E01092F20008958F70089582958F70089589
S11303F01F93CF93DF93182FC091F2008C2F0E948C
S1130400F501D82F113049F4CF3118F01092F200D1
S11304100DC0CF5FC093F20009C0C11104C08FE1C9
S11304208093F20003C0C150C093F2008091F200A7
S11304300E94F50191E08D1301C090E0892FDF91B6
S1130440CF911F910895CF93DF93833049F120F426
S1130450813081F098F40AC08530F1F198F186304A
S113046009F443C0873009F04BC045C081E00E94C5
S1130470F80146C080E00E94F80142C0C091F20039
S11304808C2F0E94F501811107C0C05FC093F20058
S113049081E08093F30034C0C051C093F20030C0B7
S11304A0C091F2008C2F0E94F501882339F0CF709F
S11304B0C093F20081E08093F30022C0C05FC09338
S11304C0F2001EC08091F2000E94F5018295807FA7
S11304D0815F8093F20014C08091F2000E94F501C4
S11304E08295807F8093F2000BC08091F2008F7020
S11304F08093F20005C08091F200805F8093F20047
S1130500C091F2008C2F0E94F501D82F8C2F0E94ED
S1130510F3016D2F0E94AB01DF91CF910895CF932A
S1130520DF93C82F803268F48A3019F08D3029F5B2
S113053004C083E00E94230220C085E00E942302BD
S11305401CC08091F300813021F40E94400110927C
S1130550F3008C2F0E94B70181E00E94F8018130E2
S113056061F4C091F2008C2F0E94F501D82F8C2FDA
S11305700E94F3016D2F0E94AB01DF91CF9108958A
S11305801F93CF93DF93EC018881882351F010E00F
S11305900E948F021F5FFE01E10FF11D8081811116
S11305A0F7CFDF91CF911F910895559A08955598EB
S11305B008951F920F920FB60F9211242F933F9319
S11305C04F935F936F937F938F939F93AF93BF9357
S11305D0EF93FF9384E791E00E9406018CB984E7CE
S11305E091E00E942E01813011F40E94D702FF9104
S11305F0EF91BF91AF919F918F917F916F915F9197
S11306004F913F912F910F900FBE0F901F9018950F
S11306101F920F920FB60F9211242F933F934F9373
S11306205F936F937F938F939F93AF93BF93EF9356
S1130630FF936CB18BE791E00E94E700FF91EF918B
S1130640BF91AF919F918F917F916F915F914F91E6
S11306503F912F910F900FBE0F901F901895E82F88
S1130660F0E0EE0FFF1FE755FF4F808189B98181CC
S113067080BD089586E880BD88E98AB91BB840E446
S113068064E371E08BE791E00E94DD0040E464EFF5
S113069070E084E791E00E94DD0082E00E942F0375
S11306A00895FF920F931F93CF93DF938C01FC0166
S11306B08081882351F1F12C84E791E00E9431017B
S11306C08130D1F30E94D702E801CF0DD11D88817A
S11306D081110DC012C0688184E791E00E94E70097
S11306E0F394E801CF0DD11D8881882331F084E78C
S11306F091E00E943101882371F30E94D502F80130
S1130700EF0DF11D80818111D7CFDF91CF911F9122
S11307100F91FF9008958BE791E00E9427010895BF
S113072084E791E00E942E0108958A3010F4805DE0
S1130730089580E00895BF92CF92DF92EF92FF92E6
S11307400F931F93CF93DF938C01D62E0F2EF4E6D5
S1130750EF2EF02DF12C0F2EFDECBF2EF02D8D2D54
S11307606E2D0E94B307C82EE801CF0DD11D0E9443
S113077095038883CE9CD0181124F394EB9CE12C30
S11307801124E694E694E69483E0F812E8CFF801A5
S1130790EF0DF11D10828F2DDF91CF911F910F91DD
S11307A0FF90EF90DF90CF90BF9008951092820158
S11307B01092980110929D011092830110929C0155
S11307C01092940110929B0110929701109295013E
S11307D0B89AB99ABA9ABB9ABC9A8B98939A80B3EE
S11307E083FB882780F9809394018BEB90E00E942F
S11307F0C00281B78C5F81BF8A9A92982FEF84E3FD
S11308009CE0215080409040E1F700C00000929AA3
S11308102FEF89E698E1215080409040E1F700C035
S1130820000080E690E00E9451032FEF88E09DE3F2
S1130830215080409040E1F700C0000080E790E044
S11308400E9451032FEF81E19AE7215080409040AC
S1130850E1F700C000008BE990E00E9451030E9480
S1130860EE018AEC90E00E94C0022FEF84E39CE04A
S1130870215080409040E1F700C000000895682FA7
S113088070E080E090E00E94C4062FEA33E24EE676
S11308905EE30E94500723E333E343E550E40E9400
S11308A0290620E030E04FE753E40E9450070E94FD
S11308B09606862F08958F929F92AF92BF92CF9201
S11308C0DF92EF92FF92CF93DF93F82EC62FD42FAF
S11308D0862F0E943F04B82E6F2D70E080E090E0D8
S11308E00E94C2066B017C016B2D70E080E090E0F9
S11308F00E94C2069B01AC01C701B6010E942906F1
S11309006B017C016D2F70E080E090E00E94C206D4
S11309104B015C016C2F70E080E090E00E94C20605
S11309209B01AC01C501B4010E9429069B01AC01E5
S1130930C701B6010E94C40520E030E048EC52E44F
S11309400E9450076B017C0124E6D29FC001112450
S11309506C2F70E00E94D30784E690E09C01261B74
S1130960370BB901882777FD8095982F0E94C4061C
S11309709B01AC01C701B6010E94290620E030E0CA
S113098048EC52E40E9450070E949106862FDF91A2
S1130990CF91FF90EF90DF90CF90BF90AF909F905A
S11309A08F900895CF93DF9300D01F92CDB7DEB719
S11309B00E94E4010E94860061E081E00E94C4007C
S11309C00E943A030E948B030E949A008FB78068AA
S11309D08FBF82E00E942F038E980E94D60304E802
S11309E011E00F2EFBE58F2EF02D0F2EFCE8AF2E1D
S11309F0F1E0BF2EF02D0F2EFDE59F2EF02D0F2ED2
S1130A00FDE8CF2EF1E0DF2EF02D0F2EFBE8EF2EC8
S1130A10F1E0FF2EF02D0F2EF3E55F2EF02D0F2EBB
S1130A20FCE46F2EF02D0F2EF2E47F2EF02D81E0EA
S1130A300E9490008E3739F481E00E949000825029
S1130A408093820105C081E00E949000809382011E
S1130A5082E00E949000809519F08093980103C071
S1130A6081E08093980183E00E94900080939B0131
S1130A7090919C01992321F08091980180939D018C
S1130A8080919701813011F08233B9F480B383FBF4
S1130A90882780F98093830120919401821751F073
S1130AA0811108C081E0911180E080939C01109233
S1130AB0940103C081E0809394010E9490038823F1
S1130AC009F4B5CFF80180826091820185E891E054
S1130AD00E949B036091980188E891E00E949B0327
S1130AE080919501882319F0F701708209C08091E3
S1130AF09C01811103C0F701608202C0F70150829A
S1130B00F5019082F601108246E069E080919B0134
S1130B100E945B04682FCE0101960E949B03809182
S1130B2097018F5F80939701813001F50E94EE0158
S1130B30C8010E94C00281EE90E00E94C002CE0172
S1130B4001960E94C00285EE90E00E94C00280E0FF
S1130B500E9490008F3F41F487EE90E00E94C00213
S1130B6081E08093950102C01092950180919701D4
S1130B70843619F4109297015ACF813009F057CF77
S1130B80C8010E94510353CF5058BB27AA270ED047
S1130B904DC13ED130F043D120F031F49F3F11F4E8
S1130BA01EF433C10EF4E095E7FB29C1E92F4FD1C0
S1130BB080F3BA17620773078407950718F071F476
S1130BC09EF567C10EF4E0950B2EBA2FA02D0B01F4
S1130BD0B90190010C01CA01A0011124FF27591B7E
S1130BE099F0593F50F4503E68F11A16F040A22F84
S1130BF0232F342F4427585FF3CF469537952795F5
S1130C00A795F0405395C9F77EF41F16BA0B620BF3
S1130C10730B840BBAF09150A1F0FF0FBB1F661F3A
S1130C20771F881FC2F70EC0BA0F621F731F841F7D
S1130C3048F4879577956795B795F7959E3F08F0A3
S1130C40B3CF9395880F08F09927EE0F9795879562
S1130C5008950CD0EBC0E3D040F0DAD030F021F4AA
S1130C605F3F19F0CCC0511115C1CFC0F0D098F33B
S1130C709923C9F35523B1F3951B550BBB27AA2719
S1130C8062177307840738F09F5F5F4F220F331F8B
S1130C90441FAA1FA9F333D00E2E3AF0E0E830D057
S1130CA091505040E695001CCAF729D0FE2F27D05A
S1130CB0660F771F881FBB1F261737074807AB0728
S1130CC0B0E809F0BB0B802DBF01FF2793585F4F9D
S1130CD02AF09E3F510568F092C0DCC05F3FECF300
S1130CE0983EDCF3869577956795B795F7959F5F62
S1130CF0C9F7880F911D9695879597F90895E1E0B6
S1130D00660F771F881FBB1F621773078407BA0714
S1130D1020F0621B730B840BBA0BEE1F88F7E0956F
S1130D20089504D06894B111B5C0089598D088F09E
S1130D309F5790F0B92F9927B751A0F0D1F0660FC3
S1130D40771F881F991F1AF0BA95C9F712C0B130DE
S1130D5081F09FD0B1E008959CC0672F782F882739
S1130D60B85F39F0B93FCCF3869577956795B3951D
S1130D70D9F73EF490958095709561957F4F8F4F8C
S1130D809F4F0895E89409C097FB3EF49095809591
S1130D90709561957F4F8F4F9F4F9923A9F0F92F3D
S1130DA096E9BB279395F695879577956795B795BB
S1130DB0F111F8CFFAF4BB0F11F460FF1BC06F5FA1
S1130DC07F4F8F4F9F4F16C0882311F096E911C0B3
S1130DD0772321F09EE8872F762F05C0662371F0D4
S1130DE096E8862F70E060E02AF09A95660F771FE8
S1130DF0881FDAF7880F9695879597F9089597F9DC
S1130E009F6780E870E060E008959FEF80EC0895AC
S1130E1000240A94161617061806090608950024D5
S1130E200A9412161306140605060895092E03944F
S1130E30000C11F4882352F0BB0F40F4BF2B11F4C3
S1130E4060FF04C06F5F7F4F8F4F9F4F089557FD22
S1130E509058440F551F59F05F3F71F04795880F24
S1130E6097FB991F61F09F3F79F0879508951216BB
S1130E7013061406551FF2CF4695F1DF08C0161667
S1130E8017061806991FF1CF869571056105089418
S1130E900895E894BB2766277727CB0197F908952F
S1130EA00BD0C4CFB5DF28F0BADF18F0952309F0D2
S1130EB0A6CFABCF1124EECFCADFA0F3959FD1F319
S1130EC0950F50E0551F629FF001729FBB27F00DF4
S1130ED0B11D639FAA27F00DB11DAA1F649F662749
S1130EE0B00DA11D661F829F2227B00DA11D621F98
S1130EF0739FB00DA11D621F839FA00D611D221F52
S1130F00749F3327A00D611D231F849F600D211D35
S1130F10822F762F6A2F11249F5750408AF0E1F0D8
S1130F2088234AF0EE0FFF1FBB1F661F771F881F21
S1130F3091505040A9F79E3F510570F060CFAACF61
S1130F405F3FECF3983EDCF3869577956795B7950C
S1130F50F795E7959F5FC1F7FE2B880F911D969536
S1130F60879597F90895991B79E004C0991F9617FE
S1130F7008F0961B881F7A95C9F780950895AA1BD7
S1130F80BB1B51E107C0AA1FBB1FA617B70710F070
S1130F90A61BB70B881F991F5A95A9F780959095A2
S1130FA0BC01CD01089597FB072E16F4009407D0D9
S1130FB077FD09D00E94BF0707FC05D03EF4909549
S1130FC081959F4F0895709561957F4F0895EE0F19
S1110FD0FF1F0590F491E02D0994F894FFCFD3
S1130FDE41542B4349504D4F44453D310D0A0000B9
S1130FEE41542B43495053544152543D225544507D
S1130FFE222C223139322E3136382E342E31222CF7
S113100E3435362C3132330D0A000041542B43490A
S113101E5053454E440D0A0000CF006700330019AB
S113102E000C000600030001000100636F6E6E6584
S113103E6374696E672E2E2E2E00436F6E6E65637B
S113104E74696F6E20696E697469616C697A65641E
S113105E00204D3A0025004252414B4520424F4953
S105106E00007C
S9030000FC
