:100000000C9467000C9484000C9484000C9484007D
:100010000C9484000C9484000C9484000C94840050
:100020000C9484000C9484000C9484000C94840040
:100030000C9484000C9408030C94D9020C94840052
:100040000C9484000C9484000C9484000C94840020
:100050000C948400C801C801C801C801C801DE01B0
:10006000DE01E001CA01CA01CA01CA01CC01CC010A
:10007000CC01CC01DE01DE01CE01CE01CE01CE01EC
:10008000CE01DE01DE01D001D001D001D001DE01C0
:10009000DE01DE01D201D201D201D201D201DE01A4
:1000A000DE01D401D601D601D601D601D801D8018E
:1000B000D801D801DE01DE01DA01DA01DA01DA0164
:1000C000DA01DE01DE01DC01DC01DC01DC011124EE
:1000D0001FBECFE5D8E0DEBFCDBF10E0A0E6B0E0A8
:1000E000E6EEFDE002C005900D92AC3DB107D9F7F8
:1000F00021E0ACEDB0E001C01D92A638B207E1F7F7
:100100000E9495040C94F1060C940000D098D198AC
:100110003F983E9A3D9A329A319A3098379A08958C
:1001200097B18F71907E982B97B9369A3699FECFFA
:1001300085B108958D9A8FB580688FBD8FB5806227
:100140008FBD8FB58F7E8FBD8FB58F7B8FBD8FB5E8
:1001500082608FBD8EB580618EBD8EB588608EBD8C
:1001600086B597B580E29EE497BD86BD8CB59DB5FA
:100170001DBC1CBC8EB58B7F8EBD8EB582608EBDC6
:100180008EB58E7F8EBD0895882351F0BB9A83B7BC
:10019000806483BF83B7886083BF83B7856083BF74
:1001A000662351F08F9A85B5806485BD85B58860DA
:1001B00085BD85B5876085BD0895FC017183608329
:1001C00042831382148281E0858316820895FC01A4
:1001D000868181111AC08381A081B181A80FB11DD0
:1001E0006C9315824381242F30E0828190E0019747
:1001F0002817390711F4138202C04F5F438393819C
:100200008481981302C081E086830895FC01858172
:1002100081111BC09481292F30E0A081B181A20FF0
:10022000B31F8C911682428150E04150510924172E
:10023000350711F4148202C09F5F94832481938157
:10024000291304C091E09583089580E00895FC018E
:1002500084818383168281E085830895FC018581F2
:100260000895FC018681089585BB85E88A95F1F79C
:100270000000DF9885E88A95F1F70000DF9A08957D
:10028000DD9881E00E9434018FE99FE00197F1F74A
:1002900000C00000DD9A0895813011F482E001C0B1
:1002A00080E0DD9884600E943401DD9A08958130F9
:1002B00011F080E001C084E0613009F482604130D7
:1002C00009F48160DD9888600E943401DD9A089508
:1002D000CF93DF93C62FD42F98E395BBDD98DE989C
:1002E0009FEF94BB9AB3906E9ABBEFE1FEE4319717
:1002F000F1F700C00000DF98EFE0F7E23197F1F787
:1003000000C00000DF9AEFE0F7E23197F1F700C09C
:100310000000DF98E7ECF0E03197F1F700C0000053
:10032000DF9AE7ECF0E03197F1F700C00000DF98CA
:10033000EFEFF5E03197F1F700C00000DF9A0E947F
:100340004C014D2F6C2F81E00E9457010E9440010B
:10035000DF91CF910895613011F090E001C090E4F9
:10036000DD98890F80680E943401DD9A0895DD9A36
:10037000803218F00E943401089590E0FC01E05CA6
:10038000F109ED33F105D0F4E65DFF4F0C94EB0677
:1003900081E417C085E415C089E413C08FE411C05F
:1003A00085E50FC081E60DC083E60BC085E609C078
:1003B00089E607C08FE605C085E703C085EA01C06E
:1003C00083E40E943401089540E061E081E00E94EE
:1003D00068011092DC001092DD0008950E94400137
:1003E0001092DC0008958F70089582958F700895A3
:1003F0001F93CF93DF93182FC091DC008C2F0E94A6
:10040000F501D82F113049F4CF3118F01092DC00EB
:100410000DC0CF5FC093DC0009C0C11104C08FE1E3
:100420008093DC0003C0C150C093DC008091DC00ED
:100430000E94F50191E08D1301C090E0892FDF91BA
:10044000CF911F910895CF93DF93833049F120F42A
:10045000813081F098F40AC08530F1F198F186304E
:1004600009F443C0873009F04BC045C081E00E94C9
:10047000F80146C080E00E94F80142C0C091DC0053
:100480008C2F0E94F501811107C0C05FC093DC0072
:1004900081E08093DD0034C0C051C093DC0030C0E7
:1004A000C091DC008C2F0E94F501882339F0CF70B9
:1004B000C093DC0081E08093DD0022C0C05FC09368
:1004C000DC001EC08091DC000E94F5018295807FD7
:1004D000815F8093DC0014C08091DC000E94F501F4
:1004E0008295807F8093DC000BC08091DC008F7050
:1004F0008093DC0005C08091DC00805F8093DC008D
:10050000C091DC008C2F0E94F501D82F8C2F0E9407
:10051000F3016D2F0E94AB01DF91CF910895CF932E
:10052000DF93C82F803268F48A3019F08D3029F5B6
:1005300004C083E00E94230220C085E00E942302C1
:100540001CC08091DD00813021F40E944001109296
:10055000DD008C2F0E94B70181E00E94F8018130FC
:1005600061F4C091DC008C2F0E94F501D82F8C2FF4
:100570000E94F3016D2F0E94AB01DF91CF9108958E
:100580001F93CF93DF93EC018881882351F010E013
:100590000E948F021F5FFE01E10FF11D808181111A
:1005A000F7CFDF91CF911F910895559A08955598EF
:1005B00008951F920F920FB60F9211242F933F931D
:1005C0004F935F936F937F938F939F93AF93BF935B
:1005D000EF93FF938EE591E00E9406018CB98EE5C2
:1005E00091E00E942E01813011F40E94D702FF9108
:1005F000EF91BF91AF919F918F917F916F915F919B
:100600004F913F912F910F900FBE0F901F90189513
:100610001F920F920FB60F9211242F933F934F9377
:100620005F936F937F938F939F93AF93BF93EF935A
:10063000FF936CB185E691E00E94E700FF91EF9196
:10064000BF91AF919F918F917F916F915F914F91EA
:100650003F912F910F900FBE0F901F901895E82F8C
:10066000F0E0EE0FFF1FE755FF4F808189B98181D0
:1006700080BD089586E880BD88E98AB91BB840E44A
:100680006EE171E085E691E00E94DD0040E46EEDF0
:1006900070E08EE591E00E94DD0082E00E942F0371
:1006A0000895FF920F931F93CF93DF938C01FC016A
:1006B0008081882351F1F12C8EE591E00E94310177
:1006C0008130D1F30E94D702E801CF0DD11D88817E
:1006D00081110DC012C068818EE591E00E94E70093
:1006E000F394E801CF0DD11D8881882331F08EE588
:1006F00091E00E943101882371F30E94D502F80134
:10070000EF0DF11D80818111D7CFDF91CF911F9126
:100710000F91FF90089585E691E00E9427010895CA
:100720008EE591E00E942E0108958A3010F4805DDC
:10073000089580E00895BF92CF92DF92EF92FF92EA
:100740000F931F93CF93DF938C01D62E0F2EF4E6D9
:10075000EF2EF02DF12C0F2EFDECBF2EF02D8D2D58
:100760006E2D0E94DF06C82EE801CF0DD11D0E941C
:1007700095038883CE9CD0181124F394EB9CE12C34
:100780001124E694E694E69483E0F812E8CFF801A9
:10079000EF0DF11D10828F2DDF91CF911F910F91E1
:1007A000FF90EF90DF90CF90BF90089510926C0172
:1007B000109280011092850110926D0110928401B7
:1007C00010927E0110928301B89AB99ABA9ABB9A94
:1007D000BC9A8B98939A80B383FB882780F9809387
:1007E0007E018BEB90E00E94C00281B78C5F81BFDD
:1007F0008A9A92982FEF84E39CE0215080409040A9
:10080000E1F700C00000929A2FEF89E698E12150AD
:1008100080409040E1F700C0000080E690E00E9438
:1008200051032FEF88E09DE3215080409040E1F795
:1008300000C0000080E790E00E9451032FEF81E1AB
:100840009AE7215080409040E1F700C000008BE91A
:1008500090E00E9451030E94EE018AEC90E00E9419
:10086000C0022FEF84E39CE0215080409040E1F7EC
:1008700000C000000895682F70E080E090E00E94C2
:10088000F0052FEA33E24EE65EE30E947C0623E3A6
:1008900033E343E550E40E94550520E030E04FE7A4
:1008A00053E40E947C060E94C205862F0895CF92D1
:1008B000DF92EF92FF92CF93DF93F82EC62F862F11
:1008C0000E943B04D82F6F2D70E080E090E00E94E2
:1008D000EE0520E030E040E251E40E947C066B012E
:1008E0007C016D2F70E080E090E00E94EE059B019E
:1008F000AC01C701B6010E9455056B017C016C2F4C
:1009000070E080E090E00E94F0059B01AC01C7011F
:10091000B6010E947C060E94BD05862FDF91CF9113
:10092000FF90EF90DF90CF900895CF93DF9300D0AA
:100930001F92CDB7DEB70E94E4010E94860061E0FD
:1009400081E00E94C4000E943A030E948B030E942F
:100950009A008FB780688FBF82E00E942F038E9825
:100960000E94D603992493940EE611E00F2EFBE526
:100970007F2EF02D0F2EF6E7AF2EF1E0BF2EF02DDB
:100980000F2EFDE58F2EF02D0F2EF7E7CF2EF1E085
:10099000DF2EF02D0F2EF5E7EF2EF1E0FF2EF02DDC
:1009A0000F2EF3E55F2EF02D0F2EFCE46F2EF02DB1
:1009B00090B393FB992790F990936D0180917E01FC
:1009C000981761F091110AC0892D909184019111BD
:1009D00080E08093840110927E0102C090927E019B
:1009E000892D0E94900086958F5B80936C0182E038
:1009F0000E949000809519F08093800102C090922F
:100A0000800183E00E9490008093830180918401A3
:100A1000882321F080918001809385010E94EE015E
:100A20000E949003882321F2F801708260916C018A
:100A30008FE691E00E949B036091800182E791E044
:100A40000E949B0380918401882319F0F701608242
:100A500002C0F7015082F5018082F6011082C801C0
:100A60000E94510369E0809183010E945704682F1E
:100A7000CE0101960E949B03C8010E94C00285ED31
:100A800090E00E94C002CE0101960E94C00289ED52
:100A900090E00E94C002FFEF20E782E0F15020408A
:100AA0008040E1F700C0000083CF0CD0EBC0E3D062
:100AB00040F0DAD030F021F45F3F19F0CCC0511192
:100AC00015C1CFC0F0D098F39923C9F35523B1F3E2
:100AD000951B550BBB27AA2762177307840738F0AD
:100AE0009F5F5F4F220F331F441FAA1FA9F333D00C
:100AF0000E2E3AF0E0E830D091505040E695001CC0
:100B0000CAF729D0FE2F27D0660F771F881FBB1F7B
:100B1000261737074807AB07B0E809F0BB0B802D55
:100B2000BF01FF2793585F4F2AF09E3F510568F0A1
:100B300092C0DCC05F3FECF3983EDCF3869577957E
:100B40006795B795F7959F5FC9F7880F911D9695A3
:100B5000879597F90895E1E0660F771F881FBB1FFF
:100B6000621773078407BA0720F0621B730B840BAC
:100B7000BA0BEE1F88F7E095089504D06894B11180
:100B8000B5C0089598D088F09F5790F0B92F992755
:100B9000B751A0F0D1F0660F771F881F991F1AF088
:100BA000BA95C9F712C0B13081F09FD0B1E0089575
:100BB0009CC0672F782F8827B85F39F0B93FCCF3F6
:100BC000869577956795B395D9F73EF4909580957E
:100BD000709561957F4F8F4F9F4F0895E89409C09E
:100BE00097FB3EF490958095709561957F4F8F4F60
:100BF0009F4F9923A9F0F92F96E9BB279395F69576
:100C0000879577956795B795F111F8CFFAF4BB0FF3
:100C100011F460FF1BC06F5F7F4F8F4F9F4F16C057
:100C2000882311F096E911C0772321F09EE8872FE1
:100C3000762F05C0662371F096E8862F70E060E09D
:100C40002AF09A95660F771F881FDAF7880F969516
:100C5000879597F9089597F99F6780E870E060E0BD
:100C600008959FEF80EC089500240A941616170645
:100C700018060906089500240A941216130614068D
:100C800005060895092E0394000C11F4882352F0F0
:100C9000BB0F40F4BF2B11F460FF04C06F5F7F4FA8
:100CA0008F4F9F4F089557FD9058440F551F59F08F
:100CB0005F3F71F04795880F97FB991F61F09F3F49
:100CC00079F087950895121613061406551FF2CF72
:100CD0004695F1DF08C0161617061806991FF1CFC2
:100CE00086957105610508940895E894BB276627E9
:100CF0007727CB0197F908950BD0C4CFB5DF28F043
:100D0000BADF18F0952309F0A6CFABCF1124EECFB0
:100D1000CADFA0F3959FD1F3950F50E0551F629F56
:100D2000F001729FBB27F00DB11D639FAA27F00D44
:100D3000B11DAA1F649F6627B00DA11D661F829F6B
:100D40002227B00DA11D621F739FB00DA11D621F50
:100D5000839FA00D611D221F749F3327A00D611D6D
:100D6000231F849F600D211D822F762F6A2F11244F
:100D70009F5750408AF0E1F088234AF0EE0FFF1FA2
:100D8000BB1F661F771F881F91505040A9F79E3FD9
:100D9000510570F060CFAACF5F3FECF3983EDCF3D3
:100DA000869577956795B795F795E7959F5FC1F716
:100DB000FE2B880F911D9695879597F90895991B9D
:100DC00079E004C0991F961708F0961B881F7A9542
:100DD000C9F780950895EE0FFF1F0590F491E02D5F
:060DE0000994F894FFCF16
:100DE60041542B4349504D4F44453D310D0A0000B7
:100DF60041542B43495053544152543D225544507B
:100E0600222C223139322E3136382E342E31222CF4
:100E16003435362C3132330D0A000041542B434908
:100E26005053454E440D0A0000CF006700330019A9
:100E3600000C000600030001000100636F6E6E6582
:100E46006374696E672E2E2E2E00636F6E6E656359
:0C0E560074203A2900204D3A00250000CD
:00000001FF
